{
  "_format": "hh-sol-artifact-1",
  "contractName": "ColorsCollection",
  "sourceName": "contracts/ColorsCollection.sol",
  "abi": [
    {
      "inputs": [],
      "stateMutability": "nonpayable",
      "type": "constructor"
    },
    {
      "anonymous": false,
      "inputs": [
        {
          "indexed": true,
          "internalType": "address",
          "name": "owner",
          "type": "address"
        },
        {
          "indexed": true,
          "internalType": "address",
          "name": "approved",
          "type": "address"
        },
        {
          "indexed": true,
          "internalType": "uint256",
          "name": "tokenId",
          "type": "uint256"
        }
      ],
      "name": "Approval",
      "type": "event"
    },
    {
      "anonymous": false,
      "inputs": [
        {
          "indexed": true,
          "internalType": "address",
          "name": "owner",
          "type": "address"
        },
        {
          "indexed": true,
          "internalType": "address",
          "name": "operator",
          "type": "address"
        },
        {
          "indexed": false,
          "internalType": "bool",
          "name": "approved",
          "type": "bool"
        }
      ],
      "name": "ApprovalForAll",
      "type": "event"
    },
    {
      "anonymous": false,
      "inputs": [
        {
          "indexed": false,
          "internalType": "address",
          "name": "sender",
          "type": "address"
        },
        {
          "indexed": false,
          "internalType": "uint256",
          "name": "tokenId",
          "type": "uint256"
        }
      ],
      "name": "NewColorMinted",
      "type": "event"
    },
    {
      "anonymous": false,
      "inputs": [
        {
          "indexed": true,
          "internalType": "address",
          "name": "from",
          "type": "address"
        },
        {
          "indexed": true,
          "internalType": "address",
          "name": "to",
          "type": "address"
        },
        {
          "indexed": true,
          "internalType": "uint256",
          "name": "tokenId",
          "type": "uint256"
        }
      ],
      "name": "Transfer",
      "type": "event"
    },
    {
      "inputs": [
        {
          "internalType": "address",
          "name": "to",
          "type": "address"
        },
        {
          "internalType": "uint256",
          "name": "tokenId",
          "type": "uint256"
        }
      ],
      "name": "approve",
      "outputs": [],
      "stateMutability": "nonpayable",
      "type": "function"
    },
    {
      "inputs": [
        {
          "internalType": "address",
          "name": "owner",
          "type": "address"
        }
      ],
      "name": "balanceOf",
      "outputs": [
        {
          "internalType": "uint256",
          "name": "",
          "type": "uint256"
        }
      ],
      "stateMutability": "view",
      "type": "function"
    },
    {
      "inputs": [
        {
          "internalType": "uint256",
          "name": "tokenId",
          "type": "uint256"
        }
      ],
      "name": "getApproved",
      "outputs": [
        {
          "internalType": "address",
          "name": "",
          "type": "address"
        }
      ],
      "stateMutability": "view",
      "type": "function"
    },
    {
      "inputs": [],
      "name": "getTotalNFTsMintedSoFar",
      "outputs": [
        {
          "internalType": "uint256",
          "name": "",
          "type": "uint256"
        }
      ],
      "stateMutability": "view",
      "type": "function"
    },
    {
      "inputs": [
        {
          "internalType": "address",
          "name": "owner",
          "type": "address"
        },
        {
          "internalType": "address",
          "name": "operator",
          "type": "address"
        }
      ],
      "name": "isApprovedForAll",
      "outputs": [
        {
          "internalType": "bool",
          "name": "",
          "type": "bool"
        }
      ],
      "stateMutability": "view",
      "type": "function"
    },
    {
      "inputs": [],
      "name": "makeColor",
      "outputs": [],
      "stateMutability": "nonpayable",
      "type": "function"
    },
    {
      "inputs": [],
      "name": "name",
      "outputs": [
        {
          "internalType": "string",
          "name": "",
          "type": "string"
        }
      ],
      "stateMutability": "view",
      "type": "function"
    },
    {
      "inputs": [
        {
          "internalType": "uint256",
          "name": "tokenId",
          "type": "uint256"
        }
      ],
      "name": "ownerOf",
      "outputs": [
        {
          "internalType": "address",
          "name": "",
          "type": "address"
        }
      ],
      "stateMutability": "view",
      "type": "function"
    },
    {
      "inputs": [
        {
          "internalType": "uint256",
          "name": "tokenId",
          "type": "uint256"
        }
      ],
      "name": "pickRandomHexadecimalFive",
      "outputs": [
        {
          "internalType": "string",
          "name": "",
          "type": "string"
        }
      ],
      "stateMutability": "view",
      "type": "function"
    },
    {
      "inputs": [
        {
          "internalType": "uint256",
          "name": "tokenId",
          "type": "uint256"
        }
      ],
      "name": "pickRandomHexadecimalFour",
      "outputs": [
        {
          "internalType": "string",
          "name": "",
          "type": "string"
        }
      ],
      "stateMutability": "view",
      "type": "function"
    },
    {
      "inputs": [
        {
          "internalType": "uint256",
          "name": "tokenId",
          "type": "uint256"
        }
      ],
      "name": "pickRandomHexadecimalOne",
      "outputs": [
        {
          "internalType": "string",
          "name": "",
          "type": "string"
        }
      ],
      "stateMutability": "view",
      "type": "function"
    },
    {
      "inputs": [
        {
          "internalType": "uint256",
          "name": "tokenId",
          "type": "uint256"
        }
      ],
      "name": "pickRandomHexadecimalSix",
      "outputs": [
        {
          "internalType": "string",
          "name": "",
          "type": "string"
        }
      ],
      "stateMutability": "view",
      "type": "function"
    },
    {
      "inputs": [
        {
          "internalType": "uint256",
          "name": "tokenId",
          "type": "uint256"
        }
      ],
      "name": "pickRandomHexadecimalThree",
      "outputs": [
        {
          "internalType": "string",
          "name": "",
          "type": "string"
        }
      ],
      "stateMutability": "view",
      "type": "function"
    },
    {
      "inputs": [
        {
          "internalType": "uint256",
          "name": "tokenId",
          "type": "uint256"
        }
      ],
      "name": "pickRandomHexadecimalTwo",
      "outputs": [
        {
          "internalType": "string",
          "name": "",
          "type": "string"
        }
      ],
      "stateMutability": "view",
      "type": "function"
    },
    {
      "inputs": [
        {
          "internalType": "address",
          "name": "from",
          "type": "address"
        },
        {
          "internalType": "address",
          "name": "to",
          "type": "address"
        },
        {
          "internalType": "uint256",
          "name": "tokenId",
          "type": "uint256"
        }
      ],
      "name": "safeTransferFrom",
      "outputs": [],
      "stateMutability": "nonpayable",
      "type": "function"
    },
    {
      "inputs": [
        {
          "internalType": "address",
          "name": "from",
          "type": "address"
        },
        {
          "internalType": "address",
          "name": "to",
          "type": "address"
        },
        {
          "internalType": "uint256",
          "name": "tokenId",
          "type": "uint256"
        },
        {
          "internalType": "bytes",
          "name": "data",
          "type": "bytes"
        }
      ],
      "name": "safeTransferFrom",
      "outputs": [],
      "stateMutability": "nonpayable",
      "type": "function"
    },
    {
      "inputs": [
        {
          "internalType": "address",
          "name": "operator",
          "type": "address"
        },
        {
          "internalType": "bool",
          "name": "approved",
          "type": "bool"
        }
      ],
      "name": "setApprovalForAll",
      "outputs": [],
      "stateMutability": "nonpayable",
      "type": "function"
    },
    {
      "inputs": [
        {
          "internalType": "bytes4",
          "name": "interfaceId",
          "type": "bytes4"
        }
      ],
      "name": "supportsInterface",
      "outputs": [
        {
          "internalType": "bool",
          "name": "",
          "type": "bool"
        }
      ],
      "stateMutability": "view",
      "type": "function"
    },
    {
      "inputs": [],
      "name": "symbol",
      "outputs": [
        {
          "internalType": "string",
          "name": "",
          "type": "string"
        }
      ],
      "stateMutability": "view",
      "type": "function"
    },
    {
      "inputs": [
        {
          "internalType": "uint256",
          "name": "tokenId",
          "type": "uint256"
        }
      ],
      "name": "tokenURI",
      "outputs": [
        {
          "internalType": "string",
          "name": "",
          "type": "string"
        }
      ],
      "stateMutability": "view",
      "type": "function"
    },
    {
      "inputs": [
        {
          "internalType": "address",
          "name": "from",
          "type": "address"
        },
        {
          "internalType": "address",
          "name": "to",
          "type": "address"
        },
        {
          "internalType": "uint256",
          "name": "tokenId",
          "type": "uint256"
        }
      ],
      "name": "transferFrom",
      "outputs": [],
      "stateMutability": "nonpayable",
      "type": "function"
    }
  ],
  "bytecode": "0x608060405260405180610100016040528060d681526020016200473460d691396008908051906020019062000036929190620005b3565b506040518061020001604052806040518060400160405280600181526020017f300000000000000000000000000000000000000000000000000000000000000081525081526020016040518060400160405280600181526020017f310000000000000000000000000000000000000000000000000000000000000081525081526020016040518060400160405280600181526020017f320000000000000000000000000000000000000000000000000000000000000081525081526020016040518060400160405280600181526020017f330000000000000000000000000000000000000000000000000000000000000081525081526020016040518060400160405280600181526020017f340000000000000000000000000000000000000000000000000000000000000081525081526020016040518060400160405280600181526020017f350000000000000000000000000000000000000000000000000000000000000081525081526020016040518060400160405280600181526020017f360000000000000000000000000000000000000000000000000000000000000081525081526020016040518060400160405280600181526020017f370000000000000000000000000000000000000000000000000000000000000081525081526020016040518060400160405280600181526020017f380000000000000000000000000000000000000000000000000000000000000081525081526020016040518060400160405280600181526020017f390000000000000000000000000000000000000000000000000000000000000081525081526020016040518060400160405280600181526020017f610000000000000000000000000000000000000000000000000000000000000081525081526020016040518060400160405280600181526020017f620000000000000000000000000000000000000000000000000000000000000081525081526020016040518060400160405280600181526020017f630000000000000000000000000000000000000000000000000000000000000081525081526020016040518060400160405280600181526020017f640000000000000000000000000000000000000000000000000000000000000081525081526020016040518060400160405280600181526020017f650000000000000000000000000000000000000000000000000000000000000081525081526020016040518060400160405280600181526020017f660000000000000000000000000000000000000000000000000000000000000081525081525060099060106200040392919062000644565b503480156200041157600080fd5b506040518060400160405280600781526020017f636f6c6f72732e000000000000000000000000000000000000000000000000008152506040518060400160405280600481526020017f434c525300000000000000000000000000000000000000000000000000000000815250816000908051906020019062000496929190620005b3565b508060019080519060200190620004af929190620005b3565b505050620004e16040518060600160405280602381526020016200471160239139620004e760201b620015061760201c565b62000865565b6200058781604051602401620004fe919062000779565b6040516020818303038152906040527f41304fac000000000000000000000000000000000000000000000000000000007bffffffffffffffffffffffffffffffffffffffffffffffffffffffff19166020820180517bffffffffffffffffffffffffffffffffffffffffffffffffffffffff83818316178352505050506200058a60201b60201c565b50565b60008151905060006a636f6e736f6c652e6c6f679050602083016000808483855afa5050505050565b828054620005c190620007ef565b90600052602060002090601f016020900481019282620005e5576000855562000631565b82601f106200060057805160ff191683800117855562000631565b8280016001018555821562000631579182015b828111156200063057825182559160200191906001019062000613565b5b509050620006409190620006ab565b5090565b82805482825590600052602060002090810192821562000698579160200282015b828111156200069757825182908051906020019062000686929190620005b3565b509160200191906001019062000665565b5b509050620006a79190620006ca565b5090565b5b80821115620006c6576000816000905550600101620006ac565b5090565b5b80821115620006ee5760008181620006e49190620006f2565b50600101620006cb565b5090565b5080546200070090620007ef565b6000825580601f1062000714575062000735565b601f016020900490600052602060002090810190620007349190620006ab565b5b50565b600062000745826200079d565b620007518185620007a8565b935062000763818560208601620007b9565b6200076e8162000854565b840191505092915050565b6000602082019050818103600083015262000795818462000738565b905092915050565b600081519050919050565b600082825260208201905092915050565b60005b83811015620007d9578082015181840152602081019050620007bc565b83811115620007e9576000848401525b50505050565b600060028204905060018216806200080857607f821691505b602082108114156200081f576200081e62000825565b5b50919050565b7f4e487b7100000000000000000000000000000000000000000000000000000000600052602260045260246000fd5b6000601f19601f8301169050919050565b613e9c80620008756000396000f3fe608060405234801561001057600080fd5b50600436106101365760003560e01c806370a08231116100b8578063b88d4fde1161007c578063b88d4fde1461035f578063c575a0171461037b578063c87b56dd146103ab578063e03293fa146103db578063e985e9c51461040b578063fc69cddb1461043b57610136565b806370a08231146102bb578063885092c1146102eb5780638b8dc3fb146102f557806395d89b4114610325578063a22cb4651461034357610136565b8063095ea7b3116100ff578063095ea7b314610207578063227cef981461022357806323b872dd1461025357806342842e0e1461026f5780636352211e1461028b57610136565b8062eca96e1461013b57806301ffc9a71461016b578063060475901461019b57806306fdde03146101b9578063081812fc146101d7575b600080fd5b61015560048036038101906101509190612947565b61046b565b6040516101629190613149565b60405180910390f35b610185600480360381019061018091906128f5565b610589565b604051610192919061312e565b60405180910390f35b6101a361066b565b6040516101b09190613329565b60405180910390f35b6101c1610688565b6040516101ce9190613149565b60405180910390f35b6101f160048036038101906101ec9190612947565b61071a565b6040516101fe919061309e565b60405180910390f35b610221600480360381019061021c91906128b9565b610760565b005b61023d60048036038101906102389190612947565b610878565b60405161024a9190613149565b60405180910390f35b61026d600480360381019061026891906127b3565b610996565b005b610289600480360381019061028491906127b3565b6109f6565b005b6102a560048036038101906102a09190612947565b610a16565b6040516102b2919061309e565b60405180910390f35b6102d560048036038101906102d0919061274e565b610ac8565b6040516102e29190613329565b60405180910390f35b6102f3610b80565b005b61030f600480360381019061030a9190612947565b610ddd565b60405161031c9190613149565b60405180910390f35b61032d610efb565b60405161033a9190613149565b60405180910390f35b61035d6004803603810190610358919061287d565b610f8d565b005b61037960048036038101906103749190612802565b610fa3565b005b61039560048036038101906103909190612947565b611005565b6040516103a29190613149565b60405180910390f35b6103c560048036038101906103c09190612947565b611123565b6040516103d29190613149565b60405180910390f35b6103f560048036038101906103f09190612947565b611236565b6040516104029190613149565b60405180910390f35b61042560048036038101906104209190612777565b611354565b604051610432919061312e565b60405180910390f35b61045560048036038101906104509190612947565b6113e8565b6040516104629190613149565b60405180910390f35b6060600061049f61047b8461159f565b60405160200161048b9190612f6e565b60405160208183030381529060405261174c565b9050600980549050816104b29190613669565b9050600981815481106104ee577f4e487b7100000000000000000000000000000000000000000000000000000000600052603260045260246000fd5b906000526020600020018054610503906135bd565b80601f016020809104026020016040519081016040528092919081815260200182805461052f906135bd565b801561057c5780601f106105515761010080835404028352916020019161057c565b820191906000526020600020905b81548152906001019060200180831161055f57829003601f168201915b5050505050915050919050565b60007f80ac58cd000000000000000000000000000000000000000000000000000000007bffffffffffffffffffffffffffffffffffffffffffffffffffffffff1916827bffffffffffffffffffffffffffffffffffffffffffffffffffffffff1916148061065457507f5b5e139f000000000000000000000000000000000000000000000000000000007bffffffffffffffffffffffffffffffffffffffffffffffffffffffff1916827bffffffffffffffffffffffffffffffffffffffffffffffffffffffff1916145b8061066457506106638261177f565b5b9050919050565b6000600161067960076117e9565b61068391906134d3565b905090565b606060008054610697906135bd565b80601f01602080910402602001604051908101604052809291908181526020018280546106c3906135bd565b80156107105780601f106106e557610100808354040283529160200191610710565b820191906000526020600020905b8154815290600101906020018083116106f357829003601f168201915b5050505050905090565b6000610725826117f7565b6004600083815260200190815260200160002060009054906101000a900473ffffffffffffffffffffffffffffffffffffffff169050919050565b600061076b82610a16565b90508073ffffffffffffffffffffffffffffffffffffffff168373ffffffffffffffffffffffffffffffffffffffff1614156107dc576040517f08c379a00000000000000000000000000000000000000000000000000000000081526004016107d3906132e9565b60405180910390fd5b8073ffffffffffffffffffffffffffffffffffffffff166107fb611842565b73ffffffffffffffffffffffffffffffffffffffff16148061082a575061082981610824611842565b611354565b5b610869576040517f08c379a000000000000000000000000000000000000000000000000000000000815260040161086090613289565b60405180910390fd5b610873838361184a565b505050565b606060006108ac6108888461159f565b6040516020016108989190612f2a565b60405160208183030381529060405261174c565b9050600980549050816108bf9190613669565b9050600981815481106108fb577f4e487b7100000000000000000000000000000000000000000000000000000000600052603260045260246000fd5b906000526020600020018054610910906135bd565b80601f016020809104026020016040519081016040528092919081815260200182805461093c906135bd565b80156109895780601f1061095e57610100808354040283529160200191610989565b820191906000526020600020905b81548152906001019060200180831161096c57829003601f168201915b5050505050915050919050565b6109a76109a1611842565b82611903565b6109e6576040517f08c379a00000000000000000000000000000000000000000000000000000000081526004016109dd90613309565b60405180910390fd5b6109f1838383611998565b505050565b610a1183838360405180602001604052806000815250610fa3565b505050565b6000806002600084815260200190815260200160002060009054906101000a900473ffffffffffffffffffffffffffffffffffffffff169050600073ffffffffffffffffffffffffffffffffffffffff168173ffffffffffffffffffffffffffffffffffffffff161415610abf576040517f08c379a0000000000000000000000000000000000000000000000000000000008152600401610ab6906132c9565b60405180910390fd5b80915050919050565b60008073ffffffffffffffffffffffffffffffffffffffff168273ffffffffffffffffffffffffffffffffffffffff161415610b39576040517f08c379a0000000000000000000000000000000000000000000000000000000008152600401610b3090613249565b60405180910390fd5b600360008373ffffffffffffffffffffffffffffffffffffffff1673ffffffffffffffffffffffffffffffffffffffff168152602001908152602001600020549050919050565b6000610b8c60076117e9565b90506000610b998261046b565b90506000610ba683611005565b90506000610bb3846113e8565b90506000610bc085610ddd565b90506000610bcd86611236565b90506000610bda87610878565b90506000868686868686604051602001610bf996959493929190612fd5565b60405160208183030381529060405290506000600882604051602001610c20929190612eb7565b604051602081830303815290604052905060008183604051602001610c46929190612e88565b60405160208183030381529060405290506000610c8b84610c6684611bff565b604051602001610c77929190612f90565b604051602081830303815290604052611bff565b9050600081604051602001610ca0919061305a565b6040516020818303038152906040529050610cef6040518060400160405280601581526020017f0a2d2d2d2d2d2d2d2d2d2d2d2d2d2d2d2d2d2d2d2d0000000000000000000000815250611506565b610d1781604051602001610d039190612ee6565b604051602081830303815290604052611506565b610d556040518060400160405280601581526020017f2d2d2d2d2d2d2d2d2d2d2d2d2d2d2d2d2d2d2d2d0a0000000000000000000000815250611506565b610d5f338d611dbd565b610d698c82611ddb565b610d736007611e4f565b610d96604051806060016040528060258152602001613e02602591398d33611e65565b7f5942aee63394f6d73c4e48a5f61801f3e901aaee2b49447de84bafb0c9f28e05338d604051610dc7929190613105565b60405180910390a1505050505050505050505050565b60606000610e11610ded8461159f565b604051602001610dfd9190612f4c565b60405160208183030381529060405261174c565b905060098054905081610e249190613669565b905060098181548110610e60577f4e487b7100000000000000000000000000000000000000000000000000000000600052603260045260246000fd5b906000526020600020018054610e75906135bd565b80601f0160208091040260200160405190810160405280929190818152602001828054610ea1906135bd565b8015610eee5780601f10610ec357610100808354040283529160200191610eee565b820191906000526020600020905b815481529060010190602001808311610ed157829003601f168201915b5050505050915050919050565b606060018054610f0a906135bd565b80601f0160208091040260200160405190810160405280929190818152602001828054610f36906135bd565b8015610f835780601f10610f5857610100808354040283529160200191610f83565b820191906000526020600020905b815481529060010190602001808311610f6657829003601f168201915b5050505050905090565b610f9f610f98611842565b8383611f04565b5050565b610fb4610fae611842565b83611903565b610ff3576040517f08c379a0000000000000000000000000000000000000000000000000000000008152600401610fea90613309565b60405180910390fd5b610fff84848484612071565b50505050565b606060006110396110158461159f565b604051602001611025919061307c565b60405160208183030381529060405261174c565b90506009805490508161104c9190613669565b905060098181548110611088577f4e487b7100000000000000000000000000000000000000000000000000000000600052603260045260246000fd5b90600052602060002001805461109d906135bd565b80601f01602080910402602001604051908101604052809291908181526020018280546110c9906135bd565b80156111165780601f106110eb57610100808354040283529160200191611116565b820191906000526020600020905b8154815290600101906020018083116110f957829003601f168201915b5050505050915050919050565b606061112e826117f7565b600060066000848152602001908152602001600020805461114e906135bd565b80601f016020809104026020016040519081016040528092919081815260200182805461117a906135bd565b80156111c75780601f1061119c576101008083540402835291602001916111c7565b820191906000526020600020905b8154815290600101906020018083116111aa57829003601f168201915b5050505050905060006111d86120cd565b90506000815114156111ee578192505050611231565b60008251111561122357808260405160200161120b929190612e64565b60405160208183030381529060405292505050611231565b61122c846120e4565b925050505b919050565b6060600061126a6112468461159f565b6040516020016112569190613038565b60405160208183030381529060405261174c565b90506009805490508161127d9190613669565b9050600981815481106112b9577f4e487b7100000000000000000000000000000000000000000000000000000000600052603260045260246000fd5b9060005260206000200180546112ce906135bd565b80601f01602080910402602001604051908101604052809291908181526020018280546112fa906135bd565b80156113475780601f1061131c57610100808354040283529160200191611347565b820191906000526020600020905b81548152906001019060200180831161132a57829003601f168201915b5050505050915050919050565b6000600560008473ffffffffffffffffffffffffffffffffffffffff1673ffffffffffffffffffffffffffffffffffffffff16815260200190815260200160002060008373ffffffffffffffffffffffffffffffffffffffff1673ffffffffffffffffffffffffffffffffffffffff16815260200190815260200160002060009054906101000a900460ff16905092915050565b6060600061141c6113f88461159f565b6040516020016114089190612f08565b60405160208183030381529060405261174c565b90506009805490508161142f9190613669565b90506009818154811061146b577f4e487b7100000000000000000000000000000000000000000000000000000000600052603260045260246000fd5b906000526020600020018054611480906135bd565b80601f01602080910402602001604051908101604052809291908181526020018280546114ac906135bd565b80156114f95780601f106114ce576101008083540402835291602001916114f9565b820191906000526020600020905b8154815290600101906020018083116114dc57829003601f168201915b5050505050915050919050565b61159c8160405160240161151a9190613149565b6040516020818303038152906040527f41304fac000000000000000000000000000000000000000000000000000000007bffffffffffffffffffffffffffffffffffffffffffffffffffffffff19166020820180517bffffffffffffffffffffffffffffffffffffffffffffffffffffffff838183161783525050505061214c565b50565b606060008214156115e7576040518060400160405280600181526020017f30000000000000000000000000000000000000000000000000000000000000008152509050611747565b600082905060005b6000821461161957808061160290613620565b915050600a826116129190613448565b91506115ef565b60008167ffffffffffffffff81111561165b577f4e487b7100000000000000000000000000000000000000000000000000000000600052604160045260246000fd5b6040519080825280601f01601f19166020018201604052801561168d5781602001600182028036833780820191505090505b5090505b60008514611740576001826116a691906134d3565b9150600a856116b59190613669565b60306116c191906133f2565b60f81b8183815181106116fd577f4e487b7100000000000000000000000000000000000000000000000000000000600052603260045260246000fd5b60200101907effffffffffffffffffffffffffffffffffffffffffffffffffffffffffffff1916908160001a905350600a856117399190613448565b9450611691565b8093505050505b919050565b60008160405160200161175f9190612e4d565b6040516020818303038152906040528051906020012060001c9050919050565b60007f01ffc9a7000000000000000000000000000000000000000000000000000000007bffffffffffffffffffffffffffffffffffffffffffffffffffffffff1916827bffffffffffffffffffffffffffffffffffffffffffffffffffffffff1916149050919050565b600081600001549050919050565b61180081612175565b61183f576040517f08c379a0000000000000000000000000000000000000000000000000000000008152600401611836906132c9565b60405180910390fd5b50565b600033905090565b816004600083815260200190815260200160002060006101000a81548173ffffffffffffffffffffffffffffffffffffffff021916908373ffffffffffffffffffffffffffffffffffffffff160217905550808273ffffffffffffffffffffffffffffffffffffffff166118bd83610a16565b73ffffffffffffffffffffffffffffffffffffffff167f8c5be1e5ebec7d5bd14f71427d1e84f3dd0314c0f7b2291e5b200ac8c7c3b92560405160405180910390a45050565b60008061190f83610a16565b90508073ffffffffffffffffffffffffffffffffffffffff168473ffffffffffffffffffffffffffffffffffffffff16148061195157506119508185611354565b5b8061198f57508373ffffffffffffffffffffffffffffffffffffffff166119778461071a565b73ffffffffffffffffffffffffffffffffffffffff16145b91505092915050565b8273ffffffffffffffffffffffffffffffffffffffff166119b882610a16565b73ffffffffffffffffffffffffffffffffffffffff1614611a0e576040517f08c379a0000000000000000000000000000000000000000000000000000000008152600401611a05906131c9565b60405180910390fd5b600073ffffffffffffffffffffffffffffffffffffffff168273ffffffffffffffffffffffffffffffffffffffff161415611a7e576040517f08c379a0000000000000000000000000000000000000000000000000000000008152600401611a7590613209565b60405180910390fd5b611a898383836121e1565b611a9460008261184a565b6001600360008573ffffffffffffffffffffffffffffffffffffffff1673ffffffffffffffffffffffffffffffffffffffff1681526020019081526020016000206000828254611ae491906134d3565b925050819055506001600360008473ffffffffffffffffffffffffffffffffffffffff1673ffffffffffffffffffffffffffffffffffffffff1681526020019081526020016000206000828254611b3b91906133f2565b92505081905550816002600083815260200190815260200160002060006101000a81548173ffffffffffffffffffffffffffffffffffffffff021916908373ffffffffffffffffffffffffffffffffffffffff160217905550808273ffffffffffffffffffffffffffffffffffffffff168473ffffffffffffffffffffffffffffffffffffffff167fddf252ad1be2c89b69c2b068fc378daa952ba7f163c4a11628f55a4df523b3ef60405160405180910390a4611bfa8383836121e6565b505050565b60606000825190506000811415611c285760405180602001604052806000815250915050611db8565b60006003600283611c3991906133f2565b611c439190613448565b6004611c4f9190613479565b90506000602082611c6091906133f2565b67ffffffffffffffff811115611c9f577f4e487b7100000000000000000000000000000000000000000000000000000000600052604160045260246000fd5b6040519080825280601f01601f191660200182016040528015611cd15781602001600182028036833780820191505090505b5090506000604051806060016040528060408152602001613e27604091399050600181016020830160005b86811015611d755760038101905062ffffff818a015116603f8160121c168401518060081b905060ff603f83600c1c1686015116810190508060081b905060ff603f8360061c1686015116810190508060081b905060ff603f831686015116810190508060e01b90508084526004840193505050611cfc565b506003860660018114611d8f5760028114611d9f57611daa565b613d3d60f01b6002830352611daa565b603d60f81b60018303525b508484525050819450505050505b919050565b611dd78282604051806020016040528060008152506121eb565b5050565b611de482612175565b611e23576040517f08c379a0000000000000000000000000000000000000000000000000000000008152600401611e1a90613269565b60405180910390fd5b80600660008481526020019081526020016000209080519060200190611e4a9291906125da565b505050565b6001816000016000828254019250508190555050565b611eff838383604051602401611e7d9392919061316b565b6040516020818303038152906040527fe3849f79000000000000000000000000000000000000000000000000000000007bffffffffffffffffffffffffffffffffffffffffffffffffffffffff19166020820180517bffffffffffffffffffffffffffffffffffffffffffffffffffffffff838183161783525050505061214c565b505050565b8173ffffffffffffffffffffffffffffffffffffffff168373ffffffffffffffffffffffffffffffffffffffff161415611f73576040517f08c379a0000000000000000000000000000000000000000000000000000000008152600401611f6a90613229565b60405180910390fd5b80600560008573ffffffffffffffffffffffffffffffffffffffff1673ffffffffffffffffffffffffffffffffffffffff16815260200190815260200160002060008473ffffffffffffffffffffffffffffffffffffffff1673ffffffffffffffffffffffffffffffffffffffff16815260200190815260200160002060006101000a81548160ff0219169083151502179055508173ffffffffffffffffffffffffffffffffffffffff168373ffffffffffffffffffffffffffffffffffffffff167f17307eab39ab6107e8899845ad3d59bd9653f200f220920489ca2b5937696c3183604051612064919061312e565b60405180910390a3505050565b61207c848484611998565b61208884848484612246565b6120c7576040517f08c379a00000000000000000000000000000000000000000000000000000000081526004016120be906131a9565b60405180910390fd5b50505050565b606060405180602001604052806000815250905090565b60606120ef826117f7565b60006120f96120cd565b905060008151116121195760405180602001604052806000815250612144565b806121238461159f565b604051602001612134929190612e64565b6040516020818303038152906040525b915050919050565b60008151905060006a636f6e736f6c652e6c6f679050602083016000808483855afa5050505050565b60008073ffffffffffffffffffffffffffffffffffffffff166002600084815260200190815260200160002060009054906101000a900473ffffffffffffffffffffffffffffffffffffffff1673ffffffffffffffffffffffffffffffffffffffff1614159050919050565b505050565b505050565b6121f583836123dd565b6122026000848484612246565b612241576040517f08c379a0000000000000000000000000000000000000000000000000000000008152600401612238906131a9565b60405180910390fd5b505050565b60006122678473ffffffffffffffffffffffffffffffffffffffff166125b7565b156123d0578373ffffffffffffffffffffffffffffffffffffffff1663150b7a02612290611842565b8786866040518563ffffffff1660e01b81526004016122b294939291906130b9565b602060405180830381600087803b1580156122cc57600080fd5b505af19250505080156122fd57506040513d601f19601f820116820180604052508101906122fa919061291e565b60015b612380573d806000811461232d576040519150601f19603f3d011682016040523d82523d6000602084013e612332565b606091505b50600081511415612378576040517f08c379a000000000000000000000000000000000000000000000000000000000815260040161236f906131a9565b60405180910390fd5b805181602001fd5b63150b7a0260e01b7bffffffffffffffffffffffffffffffffffffffffffffffffffffffff1916817bffffffffffffffffffffffffffffffffffffffffffffffffffffffff1916149150506123d5565b600190505b949350505050565b600073ffffffffffffffffffffffffffffffffffffffff168273ffffffffffffffffffffffffffffffffffffffff16141561244d576040517f08c379a0000000000000000000000000000000000000000000000000000000008152600401612444906132a9565b60405180910390fd5b61245681612175565b15612496576040517f08c379a000000000000000000000000000000000000000000000000000000000815260040161248d906131e9565b60405180910390fd5b6124a2600083836121e1565b6001600360008473ffffffffffffffffffffffffffffffffffffffff1673ffffffffffffffffffffffffffffffffffffffff16815260200190815260200160002060008282546124f291906133f2565b92505081905550816002600083815260200190815260200160002060006101000a81548173ffffffffffffffffffffffffffffffffffffffff021916908373ffffffffffffffffffffffffffffffffffffffff160217905550808273ffffffffffffffffffffffffffffffffffffffff16600073ffffffffffffffffffffffffffffffffffffffff167fddf252ad1be2c89b69c2b068fc378daa952ba7f163c4a11628f55a4df523b3ef60405160405180910390a46125b3600083836121e6565b5050565b6000808273ffffffffffffffffffffffffffffffffffffffff163b119050919050565b8280546125e6906135bd565b90600052602060002090601f016020900481019282612608576000855561264f565b82601f1061262157805160ff191683800117855561264f565b8280016001018555821561264f579182015b8281111561264e578251825591602001919060010190612633565b5b50905061265c9190612660565b5090565b5b80821115612679576000816000905550600101612661565b5090565b600061269061268b84613369565b613344565b9050828152602081018484840111156126a857600080fd5b6126b384828561357b565b509392505050565b6000813590506126ca81613da5565b92915050565b6000813590506126df81613dbc565b92915050565b6000813590506126f481613dd3565b92915050565b60008151905061270981613dd3565b92915050565b600082601f83011261272057600080fd5b813561273084826020860161267d565b91505092915050565b60008135905061274881613dea565b92915050565b60006020828403121561276057600080fd5b600061276e848285016126bb565b91505092915050565b6000806040838503121561278a57600080fd5b6000612798858286016126bb565b92505060206127a9858286016126bb565b9150509250929050565b6000806000606084860312156127c857600080fd5b60006127d6868287016126bb565b93505060206127e7868287016126bb565b92505060406127f886828701612739565b9150509250925092565b6000806000806080858703121561281857600080fd5b6000612826878288016126bb565b9450506020612837878288016126bb565b935050604061284887828801612739565b925050606085013567ffffffffffffffff81111561286557600080fd5b6128718782880161270f565b91505092959194509250565b6000806040838503121561289057600080fd5b600061289e858286016126bb565b92505060206128af858286016126d0565b9150509250929050565b600080604083850312156128cc57600080fd5b60006128da858286016126bb565b92505060206128eb85828601612739565b9150509250929050565b60006020828403121561290757600080fd5b6000612915848285016126e5565b91505092915050565b60006020828403121561293057600080fd5b600061293e848285016126fa565b91505092915050565b60006020828403121561295957600080fd5b600061296784828501612739565b91505092915050565b61297981613507565b82525050565b61298881613519565b82525050565b6000612999826133af565b6129a381856133c5565b93506129b381856020860161358a565b6129bc81613756565b840191505092915050565b60006129d2826133ba565b6129dc81856133d6565b93506129ec81856020860161358a565b6129f581613756565b840191505092915050565b6000612a0b826133ba565b612a1581856133e7565b9350612a2581856020860161358a565b80840191505092915050565b60008154612a3e816135bd565b612a4881866133e7565b94506001821660008114612a635760018114612a7457612aa7565b60ff19831686528186019350612aa7565b612a7d8561339a565b60005b83811015612a9f57815481890152600182019150602081019050612a80565b838801955050505b50505092915050565b6000612abd6025836133e7565b9150612ac882613767565b602582019050919050565b6000612ae06012836133e7565b9150612aeb826137b6565b601282019050919050565b6000612b036032836133d6565b9150612b0e826137df565b604082019050919050565b6000612b266010836133e7565b9150612b318261382e565b601082019050919050565b6000612b496025836133d6565b9150612b5482613857565b604082019050919050565b6000612b6c601c836133d6565b9150612b77826138a6565b602082019050919050565b6000612b8f6024836133d6565b9150612b9a826138cf565b604082019050919050565b6000612bb26019836133d6565b9150612bbd8261391e565b602082019050919050565b6000612bd5600d836133e7565b9150612be082613947565b600d82019050919050565b6000612bf86029836133d6565b9150612c0382613970565b604082019050919050565b6000612c1b602e836133d6565b9150612c26826139bf565b604082019050919050565b6000612c3e6011836133e7565b9150612c4982613a0e565b601182019050919050565b6000612c616002836133e7565b9150612c6c82613a37565b600282019050919050565b6000612c84603e836133d6565b9150612c8f82613a60565b604082019050919050565b6000612ca76020836133d6565b9150612cb282613aaf565b602082019050919050565b6000612cca6062836133e7565b9150612cd582613ad8565b606282019050919050565b6000612ced6010836133e7565b9150612cf882613b73565b601082019050919050565b6000612d10600a836133e7565b9150612d1b82613b9c565b600a82019050919050565b6000612d336001836133e7565b9150612d3e82613bc5565b600182019050919050565b6000612d566057836133e7565b9150612d6182613bee565b605782019050919050565b6000612d796018836133d6565b9150612d8482613c63565b602082019050919050565b6000612d9c6021836133d6565b9150612da782613c8c565b604082019050919050565b6000612dbf6011836133e7565b9150612dca82613cdb565b601182019050919050565b6000612de2601d836133e7565b9150612ded82613d04565b601d82019050919050565b6000612e05602e836133d6565b9150612e1082613d2d565b604082019050919050565b6000612e286010836133e7565b9150612e3382613d7c565b601082019050919050565b612e4781613571565b82525050565b6000612e598284612a00565b915081905092915050565b6000612e708285612a00565b9150612e7c8284612a00565b91508190509392505050565b6000612e948285612a00565b9150612ea08284612a00565b9150612eab82612bc8565b91508190509392505050565b6000612ec38285612a31565b9150612ecf8284612a00565b9150612eda82612d49565b91508190509392505050565b6000612ef182612ab0565b9150612efd8284612a00565b915081905092915050565b6000612f1382612ad3565b9150612f1f8284612a00565b915081905092915050565b6000612f3582612b19565b9150612f418284612a00565b915081905092915050565b6000612f5782612c31565b9150612f638284612a00565b915081905092915050565b6000612f7982612ce0565b9150612f858284612a00565b915081905092915050565b6000612f9b82612d03565b9150612fa78285612a00565b9150612fb282612cbd565b9150612fbe8284612a00565b9150612fc982612c54565b91508190509392505050565b6000612fe082612d26565b9150612fec8289612a00565b9150612ff88288612a00565b91506130048287612a00565b91506130108286612a00565b915061301c8285612a00565b91506130288284612a00565b9150819050979650505050505050565b600061304382612db2565b915061304f8284612a00565b915081905092915050565b600061306582612dd5565b91506130718284612a00565b915081905092915050565b600061308782612e1b565b91506130938284612a00565b915081905092915050565b60006020820190506130b36000830184612970565b92915050565b60006080820190506130ce6000830187612970565b6130db6020830186612970565b6130e86040830185612e3e565b81810360608301526130fa818461298e565b905095945050505050565b600060408201905061311a6000830185612970565b6131276020830184612e3e565b9392505050565b6000602082019050613143600083018461297f565b92915050565b6000602082019050818103600083015261316381846129c7565b905092915050565b6000606082019050818103600083015261318581866129c7565b90506131946020830185612e3e565b6131a16040830184612970565b949350505050565b600060208201905081810360008301526131c281612af6565b9050919050565b600060208201905081810360008301526131e281612b3c565b9050919050565b6000602082019050818103600083015261320281612b5f565b9050919050565b6000602082019050818103600083015261322281612b82565b9050919050565b6000602082019050818103600083015261324281612ba5565b9050919050565b6000602082019050818103600083015261326281612beb565b9050919050565b6000602082019050818103600083015261328281612c0e565b9050919050565b600060208201905081810360008301526132a281612c77565b9050919050565b600060208201905081810360008301526132c281612c9a565b9050919050565b600060208201905081810360008301526132e281612d6c565b9050919050565b6000602082019050818103600083015261330281612d8f565b9050919050565b6000602082019050818103600083015261332281612df8565b9050919050565b600060208201905061333e6000830184612e3e565b92915050565b600061334e61335f565b905061335a82826135ef565b919050565b6000604051905090565b600067ffffffffffffffff82111561338457613383613727565b5b61338d82613756565b9050602081019050919050565b60008190508160005260206000209050919050565b600081519050919050565b600081519050919050565b600082825260208201905092915050565b600082825260208201905092915050565b600081905092915050565b60006133fd82613571565b915061340883613571565b9250827fffffffffffffffffffffffffffffffffffffffffffffffffffffffffffffffff0382111561343d5761343c61369a565b5b828201905092915050565b600061345382613571565b915061345e83613571565b92508261346e5761346d6136c9565b5b828204905092915050565b600061348482613571565b915061348f83613571565b9250817fffffffffffffffffffffffffffffffffffffffffffffffffffffffffffffffff04831182151516156134c8576134c761369a565b5b828202905092915050565b60006134de82613571565b91506134e983613571565b9250828210156134fc576134fb61369a565b5b828203905092915050565b600061351282613551565b9050919050565b60008115159050919050565b60007fffffffff0000000000000000000000000000000000000000000000000000000082169050919050565b600073ffffffffffffffffffffffffffffffffffffffff82169050919050565b6000819050919050565b82818337600083830152505050565b60005b838110156135a857808201518184015260208101905061358d565b838111156135b7576000848401525b50505050565b600060028204905060018216806135d557607f821691505b602082108114156135e9576135e86136f8565b5b50919050565b6135f882613756565b810181811067ffffffffffffffff8211171561361757613616613727565b5b80604052505050565b600061362b82613571565b91507fffffffffffffffffffffffffffffffffffffffffffffffffffffffffffffffff82141561365e5761365d61369a565b5b600182019050919050565b600061367482613571565b915061367f83613571565b92508261368f5761368e6136c9565b5b828206905092915050565b7f4e487b7100000000000000000000000000000000000000000000000000000000600052601160045260246000fd5b7f4e487b7100000000000000000000000000000000000000000000000000000000600052601260045260246000fd5b7f4e487b7100000000000000000000000000000000000000000000000000000000600052602260045260246000fd5b7f4e487b7100000000000000000000000000000000000000000000000000000000600052604160045260246000fd5b6000601f19601f8301169050919050565b7f68747470733a2f2f6e6674707265766965772e30786465762e636f6465732f3f60008201527f636f64653d000000000000000000000000000000000000000000000000000000602082015250565b7f4845585f43484152414354455254485245450000000000000000000000000000600082015250565b7f4552433732313a207472616e7366657220746f206e6f6e20455243373231526560008201527f63656976657220696d706c656d656e7465720000000000000000000000000000602082015250565b7f4845585f43484152414354455253495800000000000000000000000000000000600082015250565b7f4552433732313a207472616e736665722066726f6d20696e636f72726563742060008201527f6f776e6572000000000000000000000000000000000000000000000000000000602082015250565b7f4552433732313a20746f6b656e20616c7265616479206d696e74656400000000600082015250565b7f4552433732313a207472616e7366657220746f20746865207a65726f2061646460008201527f7265737300000000000000000000000000000000000000000000000000000000602082015250565b7f4552433732313a20617070726f766520746f2063616c6c657200000000000000600082015250565b7f3c2f746578743e3c2f7376673e00000000000000000000000000000000000000600082015250565b7f4552433732313a2061646472657373207a65726f206973206e6f74206120766160008201527f6c6964206f776e65720000000000000000000000000000000000000000000000602082015250565b7f45524337323155524953746f726167653a2055524920736574206f66206e6f6e60008201527f6578697374656e7420746f6b656e000000000000000000000000000000000000602082015250565b7f4845585f434841524143544552464f5552000000000000000000000000000000600082015250565b7f227d000000000000000000000000000000000000000000000000000000000000600082015250565b7f4552433732313a20617070726f76652063616c6c6572206973206e6f7420746f60008201527f6b656e206f776e6572206e6f7220617070726f76656420666f7220616c6c0000602082015250565b7f4552433732313a206d696e7420746f20746865207a65726f2061646472657373600082015250565b7f222c20226465736372697074696f6e223a20224120686967686c79206163636c60008201527f61696d656420636f6c6c656374696f6e206f6620636f6c6f72732e222c20226960208201527f6d616765223a2022646174613a696d6167652f7376672b786d6c3b626173653660408201527f342c000000000000000000000000000000000000000000000000000000000000606082015250565b7f4845585f4348415241435445524f4e4500000000000000000000000000000000600082015250565b7f7b226e616d65223a202200000000000000000000000000000000000000000000600082015250565b7f2300000000000000000000000000000000000000000000000000000000000000600082015250565b7f27202f3e3c7465787420783d273530252720793d273530252720636c6173733d60008201527f27626173652720646f6d696e616e742d626173656c696e653d276d6964646c6560208201527f2720746578742d616e63686f723d276d6964646c65273e000000000000000000604082015250565b7f4552433732313a20696e76616c696420746f6b656e2049440000000000000000600082015250565b7f4552433732313a20617070726f76616c20746f2063757272656e74206f776e6560008201527f7200000000000000000000000000000000000000000000000000000000000000602082015250565b7f4845585f43484152414354455246495645000000000000000000000000000000600082015250565b7f646174613a6170706c69636174696f6e2f6a736f6e3b6261736536342c000000600082015250565b7f4552433732313a2063616c6c6572206973206e6f7420746f6b656e206f776e6560008201527f72206e6f7220617070726f766564000000000000000000000000000000000000602082015250565b7f4845585f43484152414354455254574f00000000000000000000000000000000600082015250565b613dae81613507565b8114613db957600080fd5b50565b613dc581613519565b8114613dd057600080fd5b50565b613ddc81613525565b8114613de757600080fd5b50565b613df381613571565b8114613dfe57600080fd5b5056fe416e204e465420772f20494420257320686173206265656e206d696e74656420746f2025734142434445464748494a4b4c4d4e4f505152535455565758595a6162636465666768696a6b6c6d6e6f707172737475767778797a303132333435363738392b2fa2646970667358221220be31f2649e9e6bb36c48dc19800776405907fb23347fd7758ad9f4e54a602f3464736f6c6343000801003354686973206973206d7920546573742d4e465420636f6e74726163742e20576f6168213c73766720786d6c6e733d27687474703a2f2f7777772e77332e6f72672f323030302f73766727207072657365727665417370656374526174696f3d27784d696e594d696e206d656574272076696577426f783d273020302033353020333530273e3c7374796c653e2e62617365207b2066696c6c3a2077686974653b20666f6e742d66616d696c793a206d6f6e6f73706163653b20666f6e742d73697a653a203970783b207d3c2f7374796c653e3c726563742077696474683d273130302527206865696768743d2731303025272066696c6c3d27",
  "linkReferences": {},
  "deployedLinkReferences": {}
}